:10000000A6C00000BFC00000BDC00000BBC0000013
:10001000B9C00000B7C00000B5C00000B3C0000008
:10002000B1C00000AFC00000ADC00000BDC3000003
:10003000A9C00000A7C00000A5C00000A3C0000028
:10004000A1C000009FC000009DC000009BC0000038
:1000500099C0000097C0000095C0000093C0000048
:1000600091C000008FC000008DC000008BC0000058
:1000700089C00000240350004F004B004B00450096
:100080004E00200043004F004E00540052004F002D
:100090004C004C004500520000001C0348004F007B
:1000A00052004900200043004F002E002C004C005D
:1000B000540044002E000000040309040902290032
:1000C00001010080FA090400000203000000092178
:1000D0001101000122560007050203400005070533
:1000E000810340000512010002000000400D0F9244
:1000F0000000010102000105010905A1011500250B
:100100000135004501750195100509190129108176
:100110000205012507463B0175049501651409395F
:10012000814265009501810126FF0046FF000930EC
:100130000931093209357508950481020600FF0965
:1001400020950181020A212695089102C000112400
:100150001FBECFEFD2E0DEBFCDBF11E0A0E0B1E027
:10016000E0EEFBE002C005900D92A030B107D9F798
:1001700021E0A0E0B1E001C01D92A131B207E1F79A
:10018000AAD02CC53DCF84B7877F84BF0FB6F89423
:10019000A895809160008861809360001092600053
:1001A0000FBE90E080E80FB6F894809361009093C2
:1001B00061000FBE8AB11AB88BB18FEF8BB994B1C1
:1001C00014B895B185B9E1C20895089542E360EC91
:1001D00082E01CD242E361EC81E018C20895FC0188
:1001E00098E0DF01892F1D928A95E9F780E88383E3
:1001F0008483858386839283809102019091030199
:100200008634910534F401969093030180930201A2
:100210000895809100019091010105977CF48081FF
:10022000918184609183808380910001909101018C
:1002300001969093010180930001089510920101AD
:100240001092000110920301109202010895CF93C1
:10025000DF93CDB7DEB728970FB6F894DEBF0FBE99
:10026000CDBF80910801843069F582E08093E90078
:100270008091E80082FF10C08091E80085FF07C0F0
:1002800040E050E067E070E0CE010196B6D080918A
:10029000E8008B778093E80081E08093E90080910B
:1002A000E80080FF0FC0CE01019699DF40E050E0EA
:1002B00068E070E0CE01019656D08091E8008E771C
:1002C0008093E80028960FB6F894DEBF0FBECDBF2E
:1002D000DF91CF91089557DF7894B9DF65D4FDCFD2
:1002E000292F332723303105E1F05CF4213031052B
:1002F00099F02230310579F589E290E02CEB30E07D
:100300002EC02132310511F12232310521F586E569
:1003100090E027EF30E023C082E190E025EE30E06E
:100320001EC099278130910541F08230910541F03E
:10033000892B89F4E8EBF0E005C0EAE9F0E002C0BF
:10034000E4E7F0E0849190E09F0109C089E090E04B
:100350002EEC30E004C080E090E020E030E0FA01D4
:10036000318320830895CF92DF92EF92FF920F9313
:100370001F93CF93DF93EC018B017A019BD1811105
:1003800033C0E114F10439F0F70180819181081B39
:10039000190BC80FD91FC12CD12C0115110519F14A
:1003A0008091E80085FD16C08091E8008E778093EB
:1003B000E800FAD3E114F10449F0F701808191815A
:1003C000C80ED91ED182C08285E00EC073D18823A9
:1003D00021F30AC089918093F10001501109FFEFC8
:1003E000CF1ADF0ADACF80E0DF91CF911F910F9112
:1003F000FF90EF90DF90CF900895CF92DF92EF9231
:10040000FF920F931F93CF93DF93EC018B017A013F
:1004100051D1811133C0E114F10439F0F701808129
:100420009181081B190BC80FD91FC12CD12C0115A4
:10043000110519F18091E80085FD16C08091E80052
:100440008B778093E800B0D3E114F10449F0F70111
:1004500080819181C80ED91ED182C08285E00EC0F4
:1004600029D1882321F30AC08091F100899301509A
:100470001109FFEFCF1ADF0ADACF80E0DF91CF91C9
:100480001F910F91FF90EF90DF90CF9008952091F2
:100490000F01309110012617370748F061157105DB
:1004A00039F42091E8002E772093E80001C0B901CB
:1004B00040E06115710591F120910801222309F4B2
:1004C00040C0253009F43FC02091E80023FD3DC025
:1004D0002091E80022FD2FC02091E80020FFE9CF05
:1004E0002091F20030E0FC01CF016115710559F057
:1004F0002034310540F481918093F10061507109FD
:100500002F5F3F4FF1CF41E02034310509F040E04B
:100510002091E8002E772093E800CBCF4111CCCF7B
:100520000AC080910801882361F0853061F08091D4
:10053000E80083FD0AC08091E80082FFF2CF80E0EE
:10054000089582E0089583E0089581E00895209160
:100550000F01309110012617370748F0611571051A
:1005600039F42091E8002E772093E80001C0B9010A
:10057000FC0120E06115710581F18091080188235B
:1005800009F43EC0853009F43DC08091E80083FD48
:100590003BC08091E80082FD2DC08091E80080FF83
:1005A000E9CF8091F20090E06115710559F0803437
:1005B000910540F424912093F10031966150710926
:1005C0000196F2CF21E08034910509F020E080917E
:1005D000E8008E778093E800CDCF2111CECF0AC0FE
:1005E00080910801882361F0853061F08091E800F6
:1005F00083FD0AC08091E80082FFF2CF80E0089579
:1006000082E0089583E0089581E00895982F953061
:1006100058F59093E900981739F07091EC0020910B
:10062000ED005091F00003C0242F762F50E021FF01
:1006300019C03091EB003E7F3093EB003091ED001C
:100640003D7F3093ED003091EB0031603093EB0053
:100650007093EC002093ED005093F0002091EE0099
:1006600027FF07C09F5FD3CF8F708093E90081E0A1
:10067000089580E008958091090187FF11C080915D
:10068000E80082FD05C0809108018111F8CF11C0FA
:100690008091E8008B770BC080910801882349F096
:1006A0008091E80080FFF8CF8091E8008E778093FA
:1006B000E80008952091E4003091E50095E640912E
:1006C000EC00842F817040FF22C08091E80080FD03
:1006D0001CC080910801882391F0853091F08091B1
:1006E000EB0085FD10C04091E4005091E5004217F9
:1006F000530729F39A01915011F784E0089582E09D
:10070000089583E0089581E0089580E00895409180
:10071000E80042FFDECF089541D043D08091D80059
:100720008F778093D8008091D80080688093D8001C
:100730008091D8008F7D8093D80084E089BD86E0C9
:1007400089BD09B400FEFDCF10920801109204018A
:10075000109206011092050142E360E080E056DF4E
:100760008091E1008E7F8093E1008091E2008160C2
:100770008093E2008091E20088608093E2008091A3
:10078000E0008E7F8093E0000895E3E6F0E0808152
:100790008E7F808381E080930701BECF1092E200BC
:1007A00008951092E10008951F920F920FB60F92D4
:1007B00011242F933F934F935F936F937F938F9366
:1007C0009F93AF93BF93EF93FF938091E10082FFDC
:1007D0000AC08091E20082FF06C08091E1008B7F19
:1007E0008093E100E0D18091E10080FF17C080910B
:1007F000E20080FF13C08091E2008E7F8093E200D0
:100800008091E20080618093E2008091D800806254
:100810008093D80019BC10920801D7DC8091E100C8
:1008200084FF2FC08091E20084FF2BC084E089BD4B
:1008300086E089BD09B400FEFDCF8091D8008F7D90
:100840008093D8008091E1008F7E8093E1008091B9
:10085000E2008F7E8093E2008091E20081608093CD
:10086000E20080910401882311F084E007C08091A8
:10087000E30087FD02C081E001C083E080930801AE
:10088000A3DC8091E10083FF22C08091E20083FF1E
:100890001EC08091E100877F8093E10082E0809319
:1008A0000801109204018091E1008E7F8093E100A5
:1008B0008091E2008E7F8093E2008091E20080616F
:1008C0008093E20042E360E080E0A0DE6CD1FF9123
:1008D000EF91BF91AF919F918F917F916F915F91B8
:1008E0004F913F912F910F900FBE0F901F90189531
:1008F0001F93CF93DF93CDB7DEB7AA970FB6F894C7
:10090000DEBF0FBECDBFE9E0F1E088E08E0F909131
:10091000F10091938E13FBCF61DC8091E80083FF9F
:100920002AC18091090190910A01953009F483C090
:1009300030F49130A9F168F0933091F11CC19830F6
:1009400009F4EEC0993009F4FAC0963009F013C1E9
:1009500094C0803821F0823809F00DC108C0809120
:10096000050190910601992389F082600FC0809162
:100970000D018F70853008F0FEC08093E9008091F2
:10098000EB0085FB882780F91092E9009091E80040
:10099000977F9093E8008093F1001092F100CBC014
:1009A000282F2D7F09F0E7C0882319F0823061F0ED
:1009B000E2C080910B01813009F0DDC0933009F075
:1009C00080E0809306012EC080910B0181112AC026
:1009D00080910D018F702FEF280F243008F0CBC0CD
:1009E0008093E9002091EB0020FF1CC0933021F49C
:1009F0008091EB00806214C09091EB009061909325
:100A0000EB0021E030E0A90102C0440F551F8A9598
:100A1000E2F74093EA001092EA008091EB008860D0
:100A20008093EB001092E9008091E800877F80932B
:100A3000E80021DEA0C081119EC010910B011F773C
:100A40008091E3008078812B8093E3008091E8001F
:100A5000877F8093E8000FDE8091E80080FFFCCF65
:100A60008091E30080688093E300111102C082E06E
:100A700001C083E0809308017EC08058823008F076
:100A80007AC080910B0190910C018C3D53E0950749
:100A900071F583E08A838AE289834FB7F894DE0197
:100AA000139620E03EE051E2E32FF0E05093570030
:100AB000E49120FF03C0E295EF703F5FEF708E2F4F
:100AC00090E0EA3010F0C79601C0C0968D939D93D8
:100AD0002F5F243149F74FBF8091E800877F8093D3
:100AE000E8006AE270E0CE010196D1DC13C06091AB
:100AF0000D0170910E01AE014F5F5F4FF1DBBC0144
:100B0000892BC9F19091E800977F9093E800898143
:100B10009A811DDD8091E8008B778093E8002BC0DF
:100B2000803849F58091E800877F8093E8008091C4
:100B300004018093F1008091E8008E7778CF8111D5
:100B40001AC090910B019230B0F48091E800877F39
:100B50008093E800909304018EDD8091040181115F
:100B600006C08091E30087FD02C081E001C084E0FF
:100B7000809308012BDB8091E80083FF0AC08091FD
:100B8000E800877F8093E8008091EB00806280938B
:100B9000EB00AA960FB6F894DEBF0FBECDBFDF9173
:100BA000CF911F9108950895CF93809108018823D4
:100BB00099F0C091E900CF709091EC00892F81707D
:100BC00090FD80E8C82B1092E9008091E80083FD39
:100BD0008FDECF70C093E900CF910895F894FFCFD6
:00000001FF
